:100000000C9434000C9446000C9446000C9446006A
:100010000C9446000C9446000C9446000C94460048
:100020000C9446000C9446000C9446000C94460038
:100030000C9446000C9446000C9446000C94460028
:100040000C9446000C9446000C9446000C94460018
:100050000C9446000C9446000C9446000C94460008
:100060000C9446000C94460011241FBECFEFD8E03C
:10007000DEBFCDBF21E0A0E0B1E001C01D92A23003
:10008000B207E1F70E94CC000C94E5000C9400004C
:10009000FC014BB13AB125B194B183B140833183B6
:1000A00022839383848384E0858386838783108679
:1000B00080EF81878FE08287CF010895CF93DF9310
:1000C000CDB7DEB72B970FB6F894DEBF0FBECDBF0E
:1000D000CE0101960E9448005F8130E061E08E8190
:1000E000381710F080E01AC08AE18A95F1F700C055
:1000F0008985962F01C0990F8A95EAF72D81209561
:100100008B85282380E0851302C03F5FE8CF8F5F97
:10011000492F422361F0359F800D11242B960FB695
:10012000F894DEBF0FBECDBFDF91CF910895990F38
:10013000EACF0E945E00811105C090E0809301012A
:10014000892F08959091010198130BC0909100019F
:10015000992399F39150909300019111EECF982F2C
:10016000EDCF95E090930001E8CFCF93DF93CDB72B
:10017000DEB72B970FB6F894DEBF0FBECDBFCE0112
:1001800001960E9448002B960FB6F894DEBF0FBE72
:10019000CDBFDF91CF9108950E94B50084B18A60F0
:1001A00084B90E949900882361F085B1857F85B963
:1001B0002FEF81EE94E0215080409040E1F700C0A5
:0E01C000000085B18A6085B9ECCFF894FFCFBE
:00000001FF
